{
  "_format": "hh-sol-artifact-1",
  "contractName": "Voting",
  "sourceName": "contracts/Voting.sol",
  "abi": [
    {
      "inputs": [],
      "stateMutability": "nonpayable",
      "type": "constructor"
    },
    {
      "anonymous": false,
      "inputs": [
        {
          "indexed": false,
          "internalType": "address",
          "name": "voter",
          "type": "address"
        },
        {
          "indexed": false,
          "internalType": "string",
          "name": "hashedCandidateNo",
          "type": "string"
        }
      ],
      "name": "VoteCasted",
      "type": "event"
    },
    {
      "anonymous": false,
      "inputs": [
        {
          "indexed": false,
          "internalType": "address",
          "name": "voter",
          "type": "address"
        }
      ],
      "name": "VoterAdded",
      "type": "event"
    },
    {
      "anonymous": false,
      "inputs": [
        {
          "indexed": false,
          "internalType": "address",
          "name": "voter",
          "type": "address"
        }
      ],
      "name": "VoterDeleted",
      "type": "event"
    },
    {
      "anonymous": false,
      "inputs": [],
      "name": "VotingStarted",
      "type": "event"
    },
    {
      "anonymous": false,
      "inputs": [],
      "name": "VotingStopped",
      "type": "event"
    },
    {
      "inputs": [
        {
          "internalType": "address",
          "name": "_voterAddress",
          "type": "address"
        }
      ],
      "name": "addAllowedVoter",
      "outputs": [],
      "stateMutability": "nonpayable",
      "type": "function"
    },
    {
      "inputs": [
        {
          "internalType": "string",
          "name": "_hashedCandidateNo",
          "type": "string"
        }
      ],
      "name": "castVote",
      "outputs": [],
      "stateMutability": "nonpayable",
      "type": "function"
    },
    {
      "inputs": [
        {
          "internalType": "address",
          "name": "_voterAddress",
          "type": "address"
        }
      ],
      "name": "deleteVoter",
      "outputs": [],
      "stateMutability": "nonpayable",
      "type": "function"
    },
    {
      "inputs": [],
      "name": "getAllVoterAddresses",
      "outputs": [
        {
          "internalType": "address[]",
          "name": "",
          "type": "address[]"
        }
      ],
      "stateMutability": "view",
      "type": "function"
    },
    {
      "inputs": [],
      "name": "getAllVoters",
      "outputs": [
        {
          "components": [
            {
              "internalType": "address",
              "name": "voterAddress",
              "type": "address"
            },
            {
              "internalType": "bool",
              "name": "isAllowed",
              "type": "bool"
            },
            {
              "internalType": "bool",
              "name": "isVoted",
              "type": "bool"
            },
            {
              "internalType": "string",
              "name": "hashedCandidateNo",
              "type": "string"
            }
          ],
          "internalType": "struct Voting.Voter[]",
          "name": "",
          "type": "tuple[]"
        }
      ],
      "stateMutability": "view",
      "type": "function"
    },
    {
      "inputs": [
        {
          "internalType": "address",
          "name": "_voterAddress",
          "type": "address"
        }
      ],
      "name": "getMyVote",
      "outputs": [
        {
          "internalType": "string",
          "name": "",
          "type": "string"
        }
      ],
      "stateMutability": "view",
      "type": "function"
    },
    {
      "inputs": [],
      "name": "getVotingStatus",
      "outputs": [
        {
          "internalType": "bool",
          "name": "",
          "type": "bool"
        }
      ],
      "stateMutability": "view",
      "type": "function"
    },
    {
      "inputs": [],
      "name": "startVoting",
      "outputs": [],
      "stateMutability": "nonpayable",
      "type": "function"
    },
    {
      "inputs": [],
      "name": "stopVoting",
      "outputs": [],
      "stateMutability": "nonpayable",
      "type": "function"
    }
  ],
  "bytecode": "0x608060405234801561001057600080fd5b50336000806101000a81548173ffffffffffffffffffffffffffffffffffffffff021916908373ffffffffffffffffffffffffffffffffffffffff16021790555060008060146101000a81548160ff021916908315150217905550611e618061007a6000396000f3fe608060405234801561001057600080fd5b50600436106100935760003560e01c80635b9ff331116100665780635b9ff331146100fa57806388e1c7391461012a5780639cc2d99314610146578063cea04b0014610162578063fab2f86b1461018057610093565b806308fe1e3b146100985780631ec6b60a146100b457806335bbe70e146100be578063581c281c146100dc575b600080fd5b6100b260048036038101906100ad919061118d565b61018a565b005b6100bc610470565b005b6100c661059d565b6040516100d39190611399565b60405180910390f35b6100e46107eb565b6040516100f191906113ca565b60405180910390f35b610114600480360381019061010f919061118d565b610801565b604051610121919061142f565b60405180910390f35b610144600480360381019061013f919061118d565b610964565b005b610160600480360381019061015b9190611586565b610c5a565b005b61016a610ec2565b604051610177919061167e565b60405180910390f35b610188610f50565b005b60008054906101000a900473ffffffffffffffffffffffffffffffffffffffff1673ffffffffffffffffffffffffffffffffffffffff163373ffffffffffffffffffffffffffffffffffffffff1614610218576040517f08c379a000000000000000000000000000000000000000000000000000000000815260040161020f90611712565b60405180910390fd5b600160008273ffffffffffffffffffffffffffffffffffffffff1673ffffffffffffffffffffffffffffffffffffffff16815260200190815260200160002060000160149054906101000a900460ff16156102a8576040517f08c379a000000000000000000000000000000000000000000000000000000000815260040161029f9061177e565b60405180910390fd5b60405180608001604052808273ffffffffffffffffffffffffffffffffffffffff16815260200160011515815260200160001515815260200160405180602001604052806000815250815250600160008373ffffffffffffffffffffffffffffffffffffffff1673ffffffffffffffffffffffffffffffffffffffff16815260200190815260200160002060008201518160000160006101000a81548173ffffffffffffffffffffffffffffffffffffffff021916908373ffffffffffffffffffffffffffffffffffffffff16021790555060208201518160000160146101000a81548160ff02191690831515021790555060408201518160000160156101000a81548160ff02191690831515021790555060608201518160010190816103cf91906119b4565b509050506002819080600181540180825580915050600190039060005260206000200160009091909190916101000a81548173ffffffffffffffffffffffffffffffffffffffff021916908373ffffffffffffffffffffffffffffffffffffffff1602179055507fa636f4a11e2d3ba7f89d042ecb0a6b886716e98cd49d8fd876ee0f73bced42b8816040516104659190611a95565b60405180910390a150565b60008054906101000a900473ffffffffffffffffffffffffffffffffffffffff1673ffffffffffffffffffffffffffffffffffffffff163373ffffffffffffffffffffffffffffffffffffffff16146104fe576040517f08c379a00000000000000000000000000000000000000000000000000000000081526004016104f590611712565b60405180910390fd5b60001515600060149054906101000a900460ff16151514610554576040517f08c379a000000000000000000000000000000000000000000000000000000000815260040161054b90611afc565b60405180910390fd5b6001600060146101000a81548160ff0219169083151502179055507f877e2548498f42b7975a186b94ef1d32c86d420b7b806dd2be2bea293b89590460405160405180910390a1565b6060600060028054905067ffffffffffffffff8111156105c0576105bf61145b565b5b6040519080825280602002602001820160405280156105f957816020015b6105e661107c565b8152602001906001900390816105de5790505b50905060005b6002805490508110156107e357600160006002838154811061062457610623611b1c565b5b9060005260206000200160009054906101000a900473ffffffffffffffffffffffffffffffffffffffff1673ffffffffffffffffffffffffffffffffffffffff1673ffffffffffffffffffffffffffffffffffffffff1681526020019081526020016000206040518060800160405290816000820160009054906101000a900473ffffffffffffffffffffffffffffffffffffffff1673ffffffffffffffffffffffffffffffffffffffff1673ffffffffffffffffffffffffffffffffffffffff1681526020016000820160149054906101000a900460ff161515151581526020016000820160159054906101000a900460ff16151515158152602001600182018054610730906117cd565b80601f016020809104026020016040519081016040528092919081815260200182805461075c906117cd565b80156107a95780601f1061077e576101008083540402835291602001916107a9565b820191906000526020600020905b81548152906001019060200180831161078c57829003601f168201915b5050505050815250508282815181106107c5576107c4611b1c565b5b602002602001018190525080806107db90611b7a565b9150506105ff565b508091505090565b60008060149054906101000a900460ff16905090565b6060600160008373ffffffffffffffffffffffffffffffffffffffff1673ffffffffffffffffffffffffffffffffffffffff16815260200190815260200160002060000160149054906101000a900460ff16610892576040517f08c379a000000000000000000000000000000000000000000000000000000000815260040161088990611c0e565b60405180910390fd5b600160008373ffffffffffffffffffffffffffffffffffffffff1673ffffffffffffffffffffffffffffffffffffffff16815260200190815260200160002060010180546108df906117cd565b80601f016020809104026020016040519081016040528092919081815260200182805461090b906117cd565b80156109585780601f1061092d57610100808354040283529160200191610958565b820191906000526020600020905b81548152906001019060200180831161093b57829003601f168201915b50505050509050919050565b60008054906101000a900473ffffffffffffffffffffffffffffffffffffffff1673ffffffffffffffffffffffffffffffffffffffff163373ffffffffffffffffffffffffffffffffffffffff16146109f2576040517f08c379a00000000000000000000000000000000000000000000000000000000081526004016109e990611712565b60405180910390fd5b600160008273ffffffffffffffffffffffffffffffffffffffff1673ffffffffffffffffffffffffffffffffffffffff168152602001908152602001600020600080820160006101000a81549073ffffffffffffffffffffffffffffffffffffffff02191690556000820160146101000a81549060ff02191690556000820160156101000a81549060ff0219169055600182016000610a9191906110be565b505060005b600280549050811015610c1f578173ffffffffffffffffffffffffffffffffffffffff1660028281548110610ace57610acd611b1c565b5b9060005260206000200160009054906101000a900473ffffffffffffffffffffffffffffffffffffffff1673ffffffffffffffffffffffffffffffffffffffff1603610c0c5760026001600280549050610b289190611c2e565b81548110610b3957610b38611b1c565b5b9060005260206000200160009054906101000a900473ffffffffffffffffffffffffffffffffffffffff1660028281548110610b7857610b77611b1c565b5b9060005260206000200160006101000a81548173ffffffffffffffffffffffffffffffffffffffff021916908373ffffffffffffffffffffffffffffffffffffffff1602179055506002805480610bd257610bd1611c62565b5b6001900381819060005260206000200160006101000a81549073ffffffffffffffffffffffffffffffffffffffff02191690559055610c1f565b8080610c1790611b7a565b915050610a96565b507faf4c2a533fbd4d43945279bdd38298da41e7b2785811f3fe4f5233a3bd4aea0b81604051610c4f9190611a95565b60405180910390a150565b60011515600060149054906101000a900460ff16151514610cb0576040517f08c379a0000000000000000000000000000000000000000000000000000000008152600401610ca790611cdd565b60405180910390fd5b60001515600160003373ffffffffffffffffffffffffffffffffffffffff1673ffffffffffffffffffffffffffffffffffffffff16815260200190815260200160002060000160159054906101000a900460ff16151514610d46576040517f08c379a0000000000000000000000000000000000000000000000000000000008152600401610d3d90611d49565b60405180910390fd5b60011515600160003373ffffffffffffffffffffffffffffffffffffffff1673ffffffffffffffffffffffffffffffffffffffff16815260200190815260200160002060000160149054906101000a900460ff16151514610ddc576040517f08c379a0000000000000000000000000000000000000000000000000000000008152600401610dd390611ddb565b60405180910390fd5b60018060003373ffffffffffffffffffffffffffffffffffffffff1673ffffffffffffffffffffffffffffffffffffffff16815260200190815260200160002060000160156101000a81548160ff02191690831515021790555080600160003373ffffffffffffffffffffffffffffffffffffffff1673ffffffffffffffffffffffffffffffffffffffff1681526020019081526020016000206001019081610e8591906119b4565b507fb7821d50dfbda5ea310faebbeac5217bc1bb0cabe463e76b80e48d11e57df0983382604051610eb7929190611dfb565b60405180910390a150565b60606002805480602002602001604051908101604052809291908181526020018280548015610f4657602002820191906000526020600020905b8160009054906101000a900473ffffffffffffffffffffffffffffffffffffffff1673ffffffffffffffffffffffffffffffffffffffff1681526020019060010190808311610efc575b5050505050905090565b60008054906101000a900473ffffffffffffffffffffffffffffffffffffffff1673ffffffffffffffffffffffffffffffffffffffff163373ffffffffffffffffffffffffffffffffffffffff1614610fde576040517f08c379a0000000000000000000000000000000000000000000000000000000008152600401610fd590611712565b60405180910390fd5b60011515600060149054906101000a900460ff16151514611034576040517f08c379a000000000000000000000000000000000000000000000000000000000815260040161102b90611cdd565b60405180910390fd5b60008060146101000a81548160ff0219169083151502179055507f06511302781925bd62e07aef472aa49b9a036f97fcaf7bd34cabe20ac447679160405160405180910390a1565b6040518060800160405280600073ffffffffffffffffffffffffffffffffffffffff168152602001600015158152602001600015158152602001606081525090565b5080546110ca906117cd565b6000825580601f106110dc57506110fb565b601f0160209004906000526020600020908101906110fa91906110fe565b5b50565b5b808211156111175760008160009055506001016110ff565b5090565b6000604051905090565b600080fd5b600080fd5b600073ffffffffffffffffffffffffffffffffffffffff82169050919050565b600061115a8261112f565b9050919050565b61116a8161114f565b811461117557600080fd5b50565b60008135905061118781611161565b92915050565b6000602082840312156111a3576111a2611125565b5b60006111b184828501611178565b91505092915050565b600081519050919050565b600082825260208201905092915050565b6000819050602082019050919050565b6111ef8161114f565b82525050565b60008115159050919050565b61120a816111f5565b82525050565b600081519050919050565b600082825260208201905092915050565b60005b8381101561124a57808201518184015260208101905061122f565b60008484015250505050565b6000601f19601f8301169050919050565b600061127282611210565b61127c818561121b565b935061128c81856020860161122c565b61129581611256565b840191505092915050565b60006080830160008301516112b860008601826111e6565b5060208301516112cb6020860182611201565b5060408301516112de6040860182611201565b50606083015184820360608601526112f68282611267565b9150508091505092915050565b600061130f83836112a0565b905092915050565b6000602082019050919050565b600061132f826111ba565b61133981856111c5565b93508360208202850161134b856111d6565b8060005b8581101561138757848403895281516113688582611303565b945061137383611317565b925060208a0199505060018101905061134f565b50829750879550505050505092915050565b600060208201905081810360008301526113b38184611324565b905092915050565b6113c4816111f5565b82525050565b60006020820190506113df60008301846113bb565b92915050565b600082825260208201905092915050565b600061140182611210565b61140b81856113e5565b935061141b81856020860161122c565b61142481611256565b840191505092915050565b6000602082019050818103600083015261144981846113f6565b905092915050565b600080fd5b600080fd5b7f4e487b7100000000000000000000000000000000000000000000000000000000600052604160045260246000fd5b61149382611256565b810181811067ffffffffffffffff821117156114b2576114b161145b565b5b80604052505050565b60006114c561111b565b90506114d1828261148a565b919050565b600067ffffffffffffffff8211156114f1576114f061145b565b5b6114fa82611256565b9050602081019050919050565b82818337600083830152505050565b6000611529611524846114d6565b6114bb565b90508281526020810184848401111561154557611544611456565b5b611550848285611507565b509392505050565b600082601f83011261156d5761156c611451565b5b813561157d848260208601611516565b91505092915050565b60006020828403121561159c5761159b611125565b5b600082013567ffffffffffffffff8111156115ba576115b961112a565b5b6115c684828501611558565b91505092915050565b600081519050919050565b600082825260208201905092915050565b6000819050602082019050919050565b600061160783836111e6565b60208301905092915050565b6000602082019050919050565b600061162b826115cf565b61163581856115da565b9350611640836115eb565b8060005b8381101561167157815161165888826115fb565b975061166383611613565b925050600181019050611644565b5085935050505092915050565b600060208201905081810360008301526116988184611620565b905092915050565b7f4f6e6c792061646d696e2063616e2063616c6c20746869732066756e6374696f60008201527f6e2e000000000000000000000000000000000000000000000000000000000000602082015250565b60006116fc6022836113e5565b9150611707826116a0565b604082019050919050565b6000602082019050818103600083015261172b816116ef565b9050919050565b7f566f74657220616c72656164792061646465642e000000000000000000000000600082015250565b60006117686014836113e5565b915061177382611732565b602082019050919050565b600060208201905081810360008301526117978161175b565b9050919050565b7f4e487b7100000000000000000000000000000000000000000000000000000000600052602260045260246000fd5b600060028204905060018216806117e557607f821691505b6020821081036117f8576117f761179e565b5b50919050565b60008190508160005260206000209050919050565b60006020601f8301049050919050565b600082821b905092915050565b6000600883026118607fffffffffffffffffffffffffffffffffffffffffffffffffffffffffffffffff82611823565b61186a8683611823565b95508019841693508086168417925050509392505050565b6000819050919050565b6000819050919050565b60006118b16118ac6118a784611882565b61188c565b611882565b9050919050565b6000819050919050565b6118cb83611896565b6118df6118d7826118b8565b848454611830565b825550505050565b600090565b6118f46118e7565b6118ff8184846118c2565b505050565b5b81811015611923576119186000826118ec565b600181019050611905565b5050565b601f82111561196857611939816117fe565b61194284611813565b81016020851015611951578190505b61196561195d85611813565b830182611904565b50505b505050565b600082821c905092915050565b600061198b6000198460080261196d565b1980831691505092915050565b60006119a4838361197a565b9150826002028217905092915050565b6119bd82611210565b67ffffffffffffffff8111156119d6576119d561145b565b5b6119e082546117cd565b6119eb828285611927565b600060209050601f831160018114611a1e5760008415611a0c578287015190505b611a168582611998565b865550611a7e565b601f198416611a2c866117fe565b60005b82811015611a5457848901518255600182019150602085019450602081019050611a2f565b86831015611a715784890151611a6d601f89168261197a565b8355505b6001600288020188555050505b505050505050565b611a8f8161114f565b82525050565b6000602082019050611aaa6000830184611a86565b92915050565b7f566f74696e67206973207374696c6c2072756e6e696e67000000000000000000600082015250565b6000611ae66017836113e5565b9150611af182611ab0565b602082019050919050565b60006020820190508181036000830152611b1581611ad9565b9050919050565b7f4e487b7100000000000000000000000000000000000000000000000000000000600052603260045260246000fd5b7f4e487b7100000000000000000000000000000000000000000000000000000000600052601160045260246000fd5b6000611b8582611882565b91507fffffffffffffffffffffffffffffffffffffffffffffffffffffffffffffffff8203611bb757611bb6611b4b565b5b600182019050919050565b7f566f746572206973206e6f7420616c6c6f7765642e0000000000000000000000600082015250565b6000611bf86015836113e5565b9150611c0382611bc2565b602082019050919050565b60006020820190508181036000830152611c2781611beb565b9050919050565b6000611c3982611882565b9150611c4483611882565b9250828203905081811115611c5c57611c5b611b4b565b5b92915050565b7f4e487b7100000000000000000000000000000000000000000000000000000000600052603160045260246000fd5b7f566f74696e67206973206e6f742072756e6e696e672e00000000000000000000600082015250565b6000611cc76016836113e5565b9150611cd282611c91565b602082019050919050565b60006020820190508181036000830152611cf681611cba565b9050919050565b7f596f75206861766520616c726561647920766f7465642e000000000000000000600082015250565b6000611d336017836113e5565b9150611d3e82611cfd565b602082019050919050565b60006020820190508181036000830152611d6281611d26565b9050919050565b7f546869732061646472657373206973206e6f742077686974656c69737465642060008201527f746f20766f746500000000000000000000000000000000000000000000000000602082015250565b6000611dc56027836113e5565b9150611dd082611d69565b604082019050919050565b60006020820190508181036000830152611df481611db8565b9050919050565b6000604082019050611e106000830185611a86565b8181036020830152611e2281846113f6565b9050939250505056fea26469706673582212207afdce1e8a711250d834a0ad3b78afab1b941a07a4a0321571e9ec9b78a09fa864736f6c63430008120033",
  "linkReferences": {},
  "deployedLinkReferences": {}
}